S018000053544D33324630333046345F44656D6F2E737265637C
S315080000002005002035240008452400084724000858
S3150800001000000000000000000000000000000000D2
S315080000200000000000000000000000004B2400084B
S3150800003000000000000000004D2400084F240008BE
S31508000040D71000087B110008F7110008A71400084C
S31508000050FB140008251F0008871800088B180008DD
S31508000060831F0008F323000863240008652400089A
S3150800007067240008692400086B2400086D2400081A
S315080000806F2400087124000800000000732400088B
S315080000907524000877240008792400087B240008C2
S315080000A07D2400087F240008812400084D220008CA
S315080000B083240008000000008524000800000000D2
S315080000C0F0B5A3B006000C00289D00BF75A003C8B4
S315080000D06F4603C7069404A83B21455400200F9099
S315080000E01700029312E03D00039606002978069849
S315080000F0039A90470690002800D1B7E00F98401C55
S315080001000F906D1C761EF1D1039E3F19387825286D
S3150800011008D1002009900A900B900C900D900E9033
S315080001203C000FE06A460021C943380001F008F890
S31508000130040001D10F989BE0D5D50124E5E701001D
S3150800014001200843641C21782029F8D023290FD0E0
S315080001502B2904D02D2907D030290CD08AE001009C
S315080001600220084380B2EDE7020004201043F9E7B5
S3150800017001000820F5E701001020F2E7002111919F
S315080001800AE0119A464B9A4205DA93009A185200E9
S31508000190511830391191641C21780A00303A0A2A1C
S315080001A0EFD321782E2903D00021C943109128E0E6
S315080001B0641C22782A2A0AD102990968029A1160CF
S315080001C00A68091D029B19601092641C19E02D2A01
S315080001D001D1641C00E00022002110910CE0002AE5
S315080001E009D1109B2E4DAB4205DA9D00EB185B003A
S315080001F0591830391091641C21780B00303B0A2BB2
S31508000200EDD304A908872578290000BF27A000F0A8
S31508000210A9FF002801D0641C00E0002504A83A21A3
S315080002204554405C682804D12178682901D16220A8
S3150800023005E06C2807D120786C2804D1712004A920
S315080002403A228854641C14A808902378029A04A9B0
S31508000250300000F069F8671C002807D114AA04A921
S31508000260300000F001FA002800D44FE70020C04310
S3150800027023B0F0BD2A2900D080E702990968029ABE
S3150800028011600A68091D029B19601192002A05D59A
S315080002905142119102000420104380B2641C80E789
S315080002A0CBCCCC0C0000000000000000686A6C741F
S315080002B07A4C00000B0062281CD068280DD06A28EA
S315080002C003D06C2823D0712821D11A68D21D0720A3
S315080002D082431A6003CA1A607047002A19681960AF
S315080002E0086803D0091D196000B217E0091D1960D6
S315080002F080B217E0002A19681960086803D0091D3A
S31508000300196040B20AE0091D1960C0B20AE0002A65
S3150800031019681960086803D0091D1960C117704764
S31508000320091D196000217047F0B583B00C0016004E
S315080003301F0025693900253900D14DE11C3900D146
S3150800034084E0091F022900D880E00E3900D106E1B1
S31508000350491F59D0093979D0891E16D0491E34D07B
S31508000360491E022972D9091F2FD0491F00D196E0CC
S31508000370491E49D0491E00D1E1E0C91E00D1FDE061
S31508000380891E41D0C91E3FD02CE13A21615C6C29F7
S3150800039009D06069411C6161316831600A68091DCC
S315080003A031602A5428E1316831600A68091D3160D4
S315080003B0009200210191C94321636A46210000F099
S315080003C0D5F9002800D417E103E1012231003A20CB
S315080003D0205CFFF76FFF03C4083C002904DA606954
S315080003E0411C61612D210DE0208F810704D56069CC
S315080003F0411C61612B2105E0C00722D56069411CBB
S315080004006161202129541CE0002231003A20205C39
S31508000410FFF750FF03C4083C3820205C000710D5BE
S3150800042003CC083C002901D100280AD020203843F3
S31508000430782806D1606930212954401C411C616125
S315080004402F5460692818E060390084E03268D21DAC
S3150800045007208243326003CA326003C4083C03CCD7
S31508000460083CC80F04D06069411C61612D210DE06C
S31508000470208F810704D56069411C61612B2105E045
S31508000480C00704D56069411C61612021295460694F
S315080004902818E0603900200000F08CFAACE03B2018
S315080004A0205C002804D00024E44300BF54A074E074
S315080004B03A20205C622808D0682823D06A2812D0FF
S315080004C06C282ED071280ED02BE030683060016879
S315080004D0001D3060002903D10024E4434EA05CE0EF
S315080004E0E06A087088E0306830600268001D306095
S315080004F0002A03D10024E44347A04EE0E06AC1176E
S3150800050003C279E0306830600168001D3060002958
S3150800051004D10024E44300BF3FA03EE0E06A08801F
S315080005206AE0306830600168001D3060002903D138
S315080005300024E44338A030E0E06A08605CE03068F4
S3150800054030600268001D30600020C043104003C4BC
S31508000550083CE5607821200000F06CF94CE06C213D
S315080005603A22A154316831600A68091D3160002AAF
S315080005702AD10024E44300BF2DA00EE03A21615C95
S315080005806C29EFD0306830600568001D3060E56082
S31508000590002D06D10024E4432CA000F0EFFD201A1C
S315080005A02BE0266B002E03D5280000F00BFE09E091
S315080005B032000021280000F00DFE002801D0401B63
S315080005C000E03000A06117E0210000F0CFF8002815
S315080005D012D50020C04310E06069411C61612521E5
S315080005E0295409E06069411C616125222A543800B2
S315080005F002D0481C60616F54002003B0F0BD0000B3
S315080006007072696E74665F733A20256E206469732A
S31508000610616C6C6F776564007072696E74663A20F7
S3150800062062616420256E20617267756D656E74005F
S315080006307072696E74665F733A2062616420256C15
S315080006407320617267756D656E7400007072696EED
S3150800065074665F733A20626164202573206172674D
S31508000660756D656E74000000F8B506000C0017007D
S31508000670606B6169401A216A401AA169401A616A69
S31508000680401AE169401AA16A401A00903820205C95
S3150800069040070ED4009800280BDD05462021A068E7
S315080006A0B047A06000285DD0E06A401CE0626D1E7D
S315080006B0F4D13A0063692100300000F0F2FC00280A
S315080006C050D1256A002D0ADD3021A068B047A06008
S315080006D0002847D0E06A401CE0626D1EF4D1A36989
S315080006E0E2682100300000F0DCFC00283AD1656A97
S315080006F0002D0ADD3021A068B047A060002831D05F
S31508000700E06A401CE0626D1EF4D1E369E068A16905
S3150800071042182100300000F0C4FC002822D1A56A46
S31508000720002D0ADD3021A068B047A060002819D046
S31508000730E06A401CE0626D1EF4D13820205C400758
S315080007400ED5009800280BDD05462021A068B04785
S31508000750A060002806D0E06A401CE0626D1EF4D155
S315080007600020F2BD0020C043F2BD0000F0B5A7B0DE
S3150800077007000C001500266B002E00D58A4E00F0E7
S3150800078035FD616B0A1800BF28A003C803AB03C375
S31508000790812A48D20020059700940290002E31DD68
S315080007A003AA296801A800F0D0FC04003BD42868F5
S315080007B0002801D1641E36D4A64223DB009840697E
S315080007C0001981280DD300200099486306AA0099CC
S315080007D00598FFF749FF0290002813D400200099D6
S315080007E0486100984769220001A906A8C01900F0C7
S315080007F003FD3819009948612868002802D02D1D84
S31508000800361BCBE7059B009C0298002804D106AA54
S3150800081021001800FFF728FF002802D10021616196
S31508000820616327B0F0BD0020C043FAE7000000006E
S3150800083000000000F2B588B0040027690A466F2A4E
S3150800084001D1082507E0084620210143782901D06F
S315080008500A2500E010253C2603CC083C06AB03C35A
S31508000860642A01D0692A09D1002907DA06A803C82B
S3150800087000220023121A8B4106A80CC006A803C83A
S31508000880002920D100281ED1206B00281BD1082D55
S3150800089058D13820205C000754D53B26302050E03C
S315080008A000290ED53821615C14220A40102A08D185
S315080008B0616B6269891A226A891A081A002800DD9A
S315080008C0206209B0F0BD049401970395009606A826
S315080008D030C80098401E02900090039EF71720002B
S315080008E0290032003B0000F0B5FC3032D2B23A2A79
S315080008F003DB08A800785138121801980299425467
S315080009002000290032003B0000F0A4FC04000D0082
S3150800091001D1002C06D00498C0680199009A89185C
S315080009208842D6D3049C019F0398009E082809D1C3
S315080009303820205C000705D5B85D302802D0761E21
S315080009403020B8553C20801BA061B919E160216BA5
S315080009508842A5DA081A2062208F144901402187A7
S31508000960AFE7F8B50024124D06000F00009214E018
S31508000970C00707D522002B003000390000F09FFC85
S3150800098006000F0000984010009020002900220061
S315080009902B0000F094FC04000D0000980028E7D115
S315080009A030003900F4BD0000FFFFFF7FEFFF0000B5
S315080009B000002440F3B591B006AA03C802AB03C3EE
S315080009C0202012A909780843019061280CD01198B3
S315080009D0006B002801D5062004E005D10198672898
S315080009E002D1012011990863119803C84C006415B7
S315080009F0641C13D10B0311D003201199886112A826
S31508000A00007861381A2804D252497944FF314731AF
S31508000A1016E051497944FF31413111E04C00641523
S31508000A20641C13D10B0311D103201199886112A8F4
S31508000A30007861381A2816D348497944FF311F319E
S31508000A4003221198C06800F0D7FBCBE104000D0023
S31508000A5092A003C82940002680277F03B94207D2FF
S31508000A60002069400DE03E497944FF310B39E7E73C
S31508000A70080D884E3618200029008A4D0D408649F3
S31508000A802943119B03C30198612813D11198C068A3
S31508000A9030210170811C119BD96012A9097861293E
S31508000AA001D1782100E05821417011984069801CD5
S31508000AB011994861119830C878A003C82040294088
S31508000AC004D1002802D16B46988082E101986128FA
S31508000AD000D0ADE01198006B002801D5212000E078
S31508000AE0401C04900498401C019002A803C80022E8
S31508000AF0002300F0A6FC02D2802000064540361FDF
S31508000B00009669460A7606A8461C0198002800DC65
S31508000B106FE120002900002280235B0300F0AAFC75
S31508000B2000D966E16900490D0A001C32002919D06E
S31508000B30002A17DDBA498A4206DB08052900802201
S31508000B4012061140014311E0564929401005084391
S31508000B5005000DE0D0180000D0180000D4180000D9
S31508000B60CC180000290080221206114000240D002E
S31508000B702000290000F098FC07000198C01F01908A
S31508000B8000280ADD380000F0C9FC02000B0020002E
S31508000B90290000F02AFD04000D00F01D072104E0DD
S31508000BA0401E0F223A4002703F11002F01DD491EF8
S31508000BB0F6D5491E00D517E1401E00220270F8E757
S31508000BC00021030006ACE41801E0401E641E5B1E0B
S31508000BD025788D42F9D00F2906D106A9491CC95C8A
S31508000BE0491C06AC641CE154002B04D506AA401C1B
S31508000BF00099091D0091431E11D4D41812A9097829
S31508000C0025783035EDB2392D02DD0E003A3EAD19A4
S31508000C1025705B1E641E002BF2D512AB1970119954
S31508000C20096B002900D4D1E0411E119B1963CDE060
S31508000C3002A803C80022002300F003FC06D202A87B
S31508000C4003C880221206514002AA03C27549300021
S31508000C504843754900F056FD009007200099401A50
S31508000C60049005DD024602A803C8FFF77AFE0AE0EB
S31508000C70424200206D49FFF774FE02000B0002A8ED
S31508000C8003C800F099FD019A662A0DD1009A0A3226
S31508000C900BE000BF02FCFFFF0000E03FFFFFFFFF85
S31508000CA0FFFFFF7FFFFF0F800622119B1B6B9A1821
S31508000CB0142A00DD142230236C46237606AB5C1C0E
S31508000CC002E002A803C8049A002A3FDD02AB03C368
S31508000CD0049202A803C800F0F9FB109006460834EF
S31508000CE00420059030000A2100F00FFD0F003000A7
S31508000CF00A2100F00AFD06003037601E0770300032
S31508000D000A2100F002FD0F0030000A2100F0FDFC68
S31508000D100600A41E303727700598401E0590E1D1BD
S31508000D2008340498083804900028CADD109800F0A2
S31508000D30E5FB02000B0002A803C800F056FC0022DF
S31508000D403B4B00F0BCFA02AA03C2C2E706A8401C45
S31508000D50211A06A8421C009802E0491E401E521C91
S31508000D601378302BF9D000900198662802D10098A4
S31508000D70401C05E00198652801D1012000E000200B
S31508000D80119B1B6B1818814200DA481E00281DD4D7
S31508000D90884204DA115C352901DB392300E0302367
S31508000DA00400511E0D1901E0401E6D1E641E2E78AA
S31508000DB09E42F9D0392B02D1135D5B1C1355002CCA
S31508000DC004D50A00401C0099491C00916946888090
S31508000DD0009800B20090019B1BB212A801781198E6
S31508000DE000F028F813B0F0BDC61D0198002800DDF4
S31508000DF08FE606A8401C311A06A8421C04988142B0
S31508000E0000DC0800002800D509E7884200DBD7E6A1
S31508000E1006A9491C095C072900DCD1E60F21D0E6A2
S31508000E20FF07000097750000A08601000000F03F4C
S31508000E3084D79741F4B584B004000E001D0000F075
S31508000E408AF96946406A00780870276B002D03DC2A
S31508000E50012500BF9FA0049020203043662803D1B7
S31508000E600A9E36B2761C19E0672800D082E00A98F6
S31508000E7000B20321C943884200DA7FE0B8427DDA2E
S31508000E800A9E36B2761C3820205C000702D4BD4282
S31508000E9000DA2F0036B2BF1B00D50027A169E0682B
S31508000EA0401836B2002E25DC491C30220270002F6D
S31508000EB003DC3820205C000704D568460078E26821
S31508000EC05054491CA1617042874200DA7E4236B20C
S31508000ED070426062BE19AE4200DA35002DB2E56195
S31508000EE02A000499E068A369C01800F085F9701B08
S31508000EF0A062C0E03200954217DA2A00049900F091
S31508000F007BF9A0694019A061711B6162002F03DC9F
S31508000F103821615C090706D569460978E2681154E3
S31508000F20E069401CE061A762A5E0049900F064F955
S31508000F30A0698019AD1B002F03DC3821615C090705
S31508000F4004D569460978E2681154401CA0612DB29F
S31508000F50AF4200DA3D002DB22A0004988119E068F4
S31508000F60A369C01800F048F9A0694019A061781B68
S31508000F70606280E0612E11D1702612E0BD4204DA6B
S31508000F803821615C090700D42F007F1E00D5002791
S31508000F90672E01D1652604E0452602E0412E00D1E0
S31508000FA05026A069411CA161049A1278E3681A5474
S31508000FB00498401C0490002F03DC3820205C0007AE
S31508000FC018D5481CA0616A461278E3685A54002F5F
S31508000FD010DD6D1E2DB2AF4200DA3D002DB22A009B
S31508000FE00499E368181800F007F9A0694019A06188
S31508000FF0781B6062E068A169401806700A9909B210
S31508001000002903D42B214170851C07E02D2141704E
S31508001010851C68460A9909B24A420285002701A931
S315080010200A9800B207E00A2100F06CFB009B1970D1
S315080010307F1C0099491C009100B20028F3DC012F9F
S3150800104006DC20203043652802D1302028706D1C2C
S31508001050002F09D1302028706D1C07E07F1E01A8DB
S31508001060C05D303028706D1C002FF7DCE068A16980
S315080010704018281AE0613820205C14210140102904
S315080010800DD16069A1694018616A4018E169401884
S31508001090A16A4018616B884201DA081A206205B015
S315080010A0F0BDF8B50026002B12D000900F001400F2
S315080010B01D002178B868009A9047B860002806D0C5
S315080010C0F86A401CF862641C6D1E01D0F1E7F6430D
S315080010D03000F2BD3000FEE72048704730B4536850
S315080010E0D418042B0BDA002909D005782570057861
S315080010F0002D04D05B1C491E641C401CF1E753609C
S3150800110030BC704738B500290ED01D001400FFF713
S31508001110E5FF616820006A6B90470122D243811A75
S3150800112002D0491E02D004E0012000E00020C0439E
S3150800113032BD0021616032BD80B5DA6B904702BDD1
S3150800114080B5064BFFF7DEFF02BD80B5034BFFF700
S31508001150F3FF02BD00000248704700003800002077
S315080011600000002000BFC9B200E0401C02788A4295
S3150800117002D0002AF9D100207047FEE780B5002882
S3150800118001D100BF07A006490B68002B03D0222215
S315080011900021984701E000F070FB222002BD000004
S315080011A018010020636F6E73747261696E7420682B
S315080011B0616E646C65723A20626164206D65737352
S315080011C061676500010000E0491C0A78002AFBD126
S315080011D0081A7047C9B201E0401C521E002A03D003
S315080011E003788B42F8D170470020704780B5FFF727
S315080011F073FF006C02BDFEE7124207D08B0706D0CC
S315080012000B78491C0370401C521EF7D87047830799
S3150800121006D00B78491C0370401C521EF9D1704742
S3150800122070B4103A03D378C9103A78C0FBD2530782
S3150800123001D318C918C001D508C908C0D20704D3F4
S315080012400B880380891C801C002A01D50B78037043
S3150800125070BC7047124224D0994228D970B500252F
S315080012601B4202D00C00002109E00024012649187F
S315080012706441944200D3A41A7641F8D3310001267A
S3150800128001E0764109D2001864416D41A41A9D41D6
S31508001290F7D2A4185D41B619F5D3300022002B0009
S315080012A070BD1B42D8D108B500F0ECFA08BD01D1D3
S315080012B09042D3D202000B00002100207047F0B5FF
S315080012C00E005E400125ED072E40B446AE0ADF1833
S315080012D04C18F44208D2F7420ED2640D01D07F0DA5
S315080012E012D100206146F0BD05D1F74201D87F0D25
S315080012F005D10020C143F0BDFBD1640DF9D0002013
S31508001300C143490549088FE0E419C902DB022943AC
S315080013102B43DB0A460DC00231438E4630B487B2F2
S3150800132095B27D432E0CADB2140C7C43A419260C41
S31508001330240425439CB27C43A419190C7943270C31
S31508001340C919A4B20F043C43090C000C97B24743D1
S315080013502E0CBE193543ADB2170C4743360CBF19D0
S31508001360A6B2BF193E043543240C3E0C36199FB26B
S315080013704743BF19BCB23E0C89191F0C47437F1857
S315080013803E043443390C704680B297B247432E0C5C
S31508001390BE193543ADB2170C4743360CBF19A6B272
S315080013A0BF193E043543240C3E0C36199FB24743F9
S315080013B0BF19BCB23E0C89191F0C47437F183E045F
S315080013C03443390C77463F0C90B278432E0C80197B
S315080013D00604ADB22E43050CA0B22D18120C7A43A2
S315080013E05019020C80B2240CA4189AB27A43121926
S315080013F014042043120C89181B0C7B43C91830BCF3
S31508001400EF0A394203D1B61940414941641E6F12A9
S31508001410BF0DE41B0BDBFF19BC4211DA24050027BC
S315080014204208AE417841614166463143F0BD641CCD
S3150800143005D1401C6141CF0201D34908F4E750E7C2
S315080014405DE730B4012464054D00EC420BD85D001D
S31508001450EC4208D80C001C4364000443144304D22D
S31508001460994200D1904230BC7047FCD08B42FAD1E9
S315080014708242F8E730B4012464054D00EC420BD8EB
S315080014805D00EC4208D80C001C4364000443144376
S3150800149004D28B4200D1824230BC7047FCD09942BC
S315080014A0FAD19042F8E7FEE7F4464A1805D200F06A
S315080014B00FF801D580174008604700F009F80121A8
S315080014C0C907884200D90800404260474A1812D224
S315080014D0400DC90208430121C9070843520D40219E
S315080014E00901521A521C06D452421F3201D4D04066
S315080014F07047C017704700207047FEE70100422278
S315080015001201D21E004207D002D4521E0018FCD582
S31508001510C10A400512058918704700000100EED57A
S315080015204042F446FFF7EBFF0122D207114360471A
S315080015308B4200D1824205D98446100062468C4609
S3150800154019006346DF184C18640D7F0D3AD0661CE7
S31508001550760537D0E61B352E34DCDB022B43DB0A57
S315080015600C0DC9022943C912202E0DDB1700203E97
S3150800157006D01F00F741F3405F400026012A774155
S31508001580C01871410DD217E01700F741F2405740D5
S31508001590F3415A40B340F3405A4000268018594157
S315080015A00AD3A21C52050FD0C207012F7241170099
S315080015B04008CB0718434908641C24054208AF4174
S315080015C070416141F0BC7047641C21050020F9E7B1
S315080015D06B4010E06B40ABE7F742F3D1E943F1E724
S315080015E02442EFD100200021ECE7F0B40125ED07F5
S315080015F00F005F40EED40C00871A9C4105D2C01B31
S31508001600A141D219634169406B40AE0ADF184C18F4
S31508001610F442E1D2640D7F0DE2D0E61B362ED1DC12
S31508001620DB022B43DB0AA4460C0DC9022943C90A6F
S31508001630012E28DC04D1D6075208DF073A435B0897
S31508001640EF0A76429041994114D039423BD1B619F6
S3150800165040414941761C394204D1761C001849415B
S315080016603942FAD0B9436746B74208D9A41B2405BC
S315080016702143A7E70042EAD13642E8D1A2E7E40AC5
S31508001680E10700209EE7202E0BDD203E1F00F340D9
S31508001690F7415F40012A002257417E429841914115
S315080016A00BE01700F741F2405740F3415A40B34068
S315080016B0F3405A407E42904199410A0303D2641E80
S315080016C0B619404149410027641E24054208AE4127
S315080016D078416141F0BC7047F446002804D4494279
S315080016E000F013F8404260474042002905D45FD015
S315080016F000F00BF8404249426047494200F005F8BD
S315080017004942604703460B43E6D40022030A8B424C
S315080017100BD203098B4219D243088B422ED2411AA7
S3150800172000D20146524110467047FF2209023FD0B7
S3150800173012068B4205D3121209028B4201D31212EA
S31508001740090203098B4219D300E0090AC3098B422F
S3150800175001D3CB01C01A524183098B4201D38B01B5
S31508001760C01A524143098B4201D34B01C01A524158
S3150800177003098B4201D30B01C01A5241C3088B429D
S3150800178001D3CB00C01A524183088B4201D38B0088
S31508001790C01A524143088B4201D34B00C01A52412A
S315080017A0884200D3401A5241CFD2014610467047AC
S315080017B008B500F069F808BDF0B40E005E400125D2
S315080017C0ED072E40B446AE0ADF184C18F4423BD259
S315080017D0F74241D2640D43D07F0D38D0E41BC902CD
S315080017E0DB0229432B43CF0ADB0A0600B61A9F41C0
S315080017F004D2641EB6197F41B6185F416812800D7F
S3150800180024180018844222DAE80C0021B6197F4110
S31508001810B61A9F4102D2B6185F413F1C4041494162
S31508001820F4D3241C21DD2405B6197F41B61A9F413D
S3150800183005D33743C60737430026012F7041614158
S3150800184066463143F0BC7047FCD1F74205D200200A
S31508001850C14349054908F3E704D00020C143F1E72D
S315080018607F0DFAD000206146ECE72442FAD1401CED
S3150800187061410F03F6D30020E2E780B5012000F0AE
S3150800188005F801BD7047FEE77047FEE780B500BF63
S3150800189000BF024A11001820ABBEFBE72600020073
S315080018A000B583B0C0200090012069460871002069
S315080018B06946887103206946487169469020C005C3
S315080018C000F0D4F9012000F037F81A49012000F099
S315080018D06EF918480078132801D0002028E0352032
S315080018E01449087013480178112000F093F907206D
S315080018F0104908700F480178102000F08BF9322043
S315080019000C4908700B480178282000F083F9072055
S315080019100849087007480178162000F07BF904206A
S315080019200449087003480178192000F073F901206A
S315080019300EBD00001C01002001B581B068468088F4
S31508001940411E6A46918080B200280DD0FA204000D8
S3150800195069460880684600880028EFD068460088EF
S31508001960401E69460880F5E703BD00B583B08020B0
S315080019700090002069460871032069464871694647
S315080019809020C00500F072F907BD00B583B080202D
S315080019900090012069460871002069468871032075
S315080019A06946487169469020C00500F05FF907BD91
S315080019B010B50400E4B2002C05D180219020C005A2
S315080019C000F0C2F904E080219020C00500F0B9F9C2
S315080019D010BD10B50400E4B2002C05D140219020BA
S315080019E0C00500F0B1F904E040219020C00500F0E0
S315080019F0A8F910BD80B580219020C00500F094F9A3
S31508001A0002BD80B50120FFF7D3FF0120FFF794FF41
S31508001A100120FFF7DEFF0220FFF78EFF0020FFF709
S31508001A20C7FF0220FFF788FF0020FFF7D2FF02203A
S31508001A30FFF782FF01BD80B50020FFF7B9FF01203F
S31508001A40FFF77AFF0120FFF7C4FF0220FFF774FFB4
S31508001A500120FFF7ADFF0220FFF76EFF01BD10B5AD
S31508001A6000240120FFF768FF0120FFF7A1FF0120EE
S31508001A70FFF762FFFFF779FF0120FFF7AAFFFFF7DD
S31508001A80B9FF00280AD0641C0120FFF755FFE4B20D
S31508001A90152CF4DBFFF7CFFF012006E00020FFF747
S31508001AA098FF0120FFF748FF002010BD80B50020F1
S31508001AB0FFF78FFFFFF769FF0020FFF779FF022086
S31508001AC0FFF73AFF0120FFF784FF0220FFF734FFF4
S31508001AD00020FFF77EFF01BD80B50020FFF779FFE4
S31508001AE0FFF753FF0120FFF763FF0220FFF724FFEC
S31508001AF00120FFF76EFF0220FFF71EFF0020FFF709
S31508001B0068FF01BD70B504000020FFF762FF0026DC
S31508001B10F6B2082E1CDA2000C0B2C0090500EDB2E4
S31508001B20002D03D10020FFF743FF02E00120FFF755
S31508001B303FFF64000120FFF74CFF0220FFF7FCFE81
S31508001B400020FFF746FF0220FFF7F6FE761CDFE7C8
S31508001B5070BD70B5040000260120FFF729FFFFF7C6
S31508001B6004FF0020FFF735FF0025EDB2082D13DA34
S31508001B700120FFF72EFF0120FFF7DEFE7600FFF7B4
S31508001B8039FF002800D0761C0020FFF722FF01202D
S31508001B90FFF7D2FE6D1CE8E7E4B2002C02D1FFF78E
S31508001BA09BFF01E0FFF782FF3000C0B270BD38B579
S31508001BB005000C00FFF7E9FEFFF723FF4E20FFF7AD
S31508001BC0A1FFFFF74CFF002801D0002021E0FFF716
S31508001BD0DCFE2800C0B2FFF795FFFFF740FF00289C
S31508001BE001D0002015E0FFF7D0FEFFF70AFF4F20CF
S31508001BF0FFF788FFFFF733FF002801D0002008E031
S31508001C00FFF7C3FE0020FFF7A4FF2070FFF713FFBE
S31508001C10012032BD38B505000C00FFF7B6FEFFF708
S31508001C20F0FE4E20FFF76EFFFFF719FF002801D0E0
S31508001C3000201AE0FFF7A9FE2800C0B2FFF762FFEE
S31508001C40FFF70DFF002801D000200EE0FFF79DFEEC
S31508001C502000C0B2FFF756FFFFF701FF002801D0AA
S31508001C60002002E0FFF7E7FE012032BDF0B50025AF
S31508001C70002200230024102C55D20125A5402A0055
S31508001C800D6815402B0093424BD10D79012D02D0DA
S31508001C900D79022D1DD186680327BC46250002272B
S31508001CA07D436746AF40BE43866086684F79BC462B
S31508001CB0250002277D436746AF40374387608588FE
S31508001CC00126A640B543858085888E79A6402E4391
S31508001CD0868006680327BC46250002277D4367469B
S31508001CE0AF40BE43066006680F79BC46250002274A
S31508001CF07D436746AF4037430760C6680327BC463F
S31508001D00250002277D436746AF40BE43C660C668C6
S31508001D10CF79BC46250002277D436746AF40374347
S31508001D20C760641CA7E7F0BD00B502000023108A4F
S31508001D3089B20840002801D0012000E00020C0B286
S31508001D4000BD89B2816170470185704780B54A48F0
S31508001D50006801210143484801604848006848492D
S31508001D6001404648016044480068464901404248E7
S31508001D70016041480068444901403F4801603F48C6
S31508001D800068424901403D480160414800680F210A
S31508001D9088433F4908603F4800683F4901403D483D
S31508001DA001603E480068012188433C4908600020DC
S31508001DB03B49086000F001F801BDC0B5002001905C
S31508001DC0002000902C4800688021490201432A48D7
S31508001DD0016029480068802189020840009001981E
S31508001DE0401C01900098002804D10198A021C9013F
S31508001DF08842EED120480068800302D50120009071
S31508001E0001E0002000900098012834D111202549CE
S31508001E1008601A4800681949086018480068174990
S31508001E2008601648006819490140144801601348BB
S31508001E300068882149030143104801600E4800687C
S31508001E408021490401430C4801600B480068800161
S31508001E50FBD50A48006803218843084908600748F3
S31508001E6000680221014305480160044800680C2106
S31508001E7001400829F9D103BD0010024004100240B0
S31508001E800CB8FFF8FFFFF6FEFFFFFBFFFFFFC0FFE2
S31508001E902C10024030100240ACFEFFFF3410024006
S31508001EA0081002400020024000B585B0012101203B
S31508001EB000F078F801218020800200F063F8022003
S31508001EC00390002003A90871012003A94871012085
S31508001ED003A9C87103A99020C005FFF7C7FE012111
S31508001EE0002000F073F8022000F0EFF802200190BD
S31508001EF0002001A908710C2001A94871012001A937
S31508001F00887101A800F090F805206946087001203C
S31508001F1069464870012069468870684600F0E4F80A
S31508001F2005B000BD80B500F038F9FA20C00000F011
S31508001F300FF8022000F0BCF8002805D0034800F08E
S31508001F4033F9022000F0C1F801BD0000942300080F
S31508001F5001B581B068468088411E6A46918080B284
S31508001F6000280DD0FA204000694608806846008897
S31508001F700028EFD068460088401E69460880F5E7C5
S31508001F8003BDFEE700B5C9B2002905D00D4A12689F
S31508001F9002430C4B1A6004E00A4A12688243094B52
S31508001FA01A6000BD00B5C9B2002905D0064A1268F4
S31508001FB00243054B1A6004E0034A12688243024B47
S31508001FC01A6000BD1410024018100240F0B4002236
S31508001FD00F238C07A40F04256C43A340114CC9B2E8
S31508001FE08D100426754364599C430E4DC9B28E1054
S31508001FF004277E43AC510B4CC9B28D100426754399
S315080020006559C0B28E07B60F042466430400B4406F
S315080020102C43044DC9B28F1004267743EC51F0BC0B
S31508002020704700000800014000B50022294983795D
S31508002030002B36D0274A126803689A43254B1A6044
S31508002040254A126803689A43234B1A60027989184D
S315080020500A68036813430B60204A126803689A43A8
S315080020601E4B1A601E4A126803689A431C4B1A6074
S315080020704279102A0CD1194A126803681343174A81
S315080020801360174A126803681343154A13600EE073
S31508002090104A4379D21811000A68036813430B6083
S315080020A005E0027989180A6803689A430A6000BD40
S315080020B000B5010000220B4800680840002801D03E
S315080020C0012000E00020C0B200BD06490860704744
S315080020D00000000000040140040401400804014017
S315080020E00C0401401404014030B500218278002A0E
S315080020F026D0174A03789B1004246343D258FF233B
S315080021000478A407A40F08256C43A3409A43437890
S315080021109B01DBB20478A407A40F08256C43A340EF
S31508002120134319000A4A03789B1004246343D150C9
S3150800213001220378DB06DB0E9A40064B1A6006E09E
S3150800214001220378DB06DB0E9A40034B1A6030BD8A
S3150800215000E400E000E100E080E100E000B583B0C3
S31508002160012180208002FFF70DFF1020009001203A
S3150800217069460871002069468871032069464871D6
S3150800218069469020C005FFF771FD07BD80B510218F
S315080021909020C005FFF7D8FD01BD80B5102190201D
S315080021A0C005FFF7CEFD01BD0EB4C0B5020003A8F9
S315080021B001900020009001AB0121044878440C30BE
S315080021C0FDF77EFF029906B0084700BF33020000FC
S315080021D0CA05D20D02857047808CC005C00D7047B0
S315080021E000B502000023D0690840002801D001206C
S315080021F000E00020C0B200BDF8B5020000200023B0
S31508002200002600240D00ADB22D0AADB20095CFB25E
S315080022100125BD40009F012F02D113682B4007E01E
S31508002220009B022B02D153682B4001E093682B4098
S315080022300D0C0126AE40D5693540002B03D0002D84
S3150800224001D0012000E00020C0B2F2BD80B51449DB
S315080022501248FFF7D1FF00280DD01048FFF7BCFF42
S31508002260010089B20D48FFF7B3FF80210B48FFF73D
S31508002270B7FF0028F9D001BD38B504000D002100CC
S31508002280C9B289B20548FFF7A3FF40210348FFF703
S31508002290A7FF0028F9D0200032BD00000038014011
S315080022A00501050070B401000123002413E00A6843
S315080022B0091D1A4202D04D466D1E52191460121D90
S315080022C0001F0428FAD21500860701D51480AD1C14
S315080022D0184000D02C700868091D0028E7D10800AE
S315080022E070BC704730B501684118446862088A189E
S315080022F08368E4070DD54C461B190AE00C7864B2CE
S31508002300491C0D78491C1D705B1C002C05D5641CE6
S31508002310F9D19142F2D10C3030BD641EF1D5F8E7FF
S3150800232000B5002801D0401EFBE700BD80B5FFF7C9
S3150800233015FFFFF7B9FDFFF7B3FA0348FFF7F0FFFC
S31508002340FFF724FFF9E70000404B4C0010B507499A
S3150800235079441831064C7C44163404E0081D0A6892
S31508002360891888470100A142F8D110BD080000006D
S315080023702400000031FFFFFF58000000C8000020BD
S315080023800000000061FFFFFFFE000000E8000000FB
S3150800239000000020504131CFECD3A6D2BBB4CECF3B
S315080023A0C2BDB5D1D8B4A5B7A2D6D0B6CF0D0A004E
S315080023B0FF2902D90020C0437047017001207047E9
S315080023C00078401E8041C043C00F704700F00BF8EC
S315080023D0002801D0FFF7BAFF002000BF00BFFFF7B3
S315080023E0A5FF00F002F80120704780B500F002F85A
S315080023F001BDFEE707463846FFF748FAFBE738B55A
S3150800240005000C00200000F005F8A04200D00025C9
S31508002410280032BD80B50249FFF72EFF02BD00BF76
S31508002420800000206E616E004E414E00696E6600A7
S31508002430494E460001488047014800474D1D00089F
S3150800244051240008704700B5FEE77047704770478B
S3150800245000BF00BF00BF00BFFFF7B8FF00002E0097
S315080024604300FEE7FEE7FEE7FEE7FEE7FEE7FEE7D8
S31508002470FEE7FEE7FEE7FEE7FEE7FEE7FEE7FEE726
S31508002480FEE7FEE7FEE71B5C2400085C2400085C08
S315080024902400085C2400085C2400085C2400085C0E
S315080024A0240008F8FF0B5E2400085C2400085C245E
S315080024B00008FAFF0600006024000801FA00002060
S315080024C0D80003C1230008FC0004B123000801F961
S315080024D0001302040101C800002018010020C800EA
S315080024E00020C8000020FC0003C8000020FC0007EC
S30F080024F0C4000020B0000020E00040
S705080024517D
