:020000040800F2
:1000000008040020D5000008710500082D02000832
:1000100000000000000000000000000000000000E0
:100020000000000000000000000000003F06000883
:100030000000000000000000730500081907000818
:10004000E7000008E7000008E7000008E7000008F4
:10005000E7000008E7000008E700000821010008A9
:10006000E7000008E7000008E7000008E7000008D4
:10007000E7000008E7000008E7000008E7000008C4
:10008000E7000008E700000800000000E7000008A3
:10009000E7000008E7000008E7000008E7000008A4
:1000A000E7000008E7000008E700000899070008DB
:1000B000E700000800000000E70000080000000062
:1000C0000348854600F014F800480047B9080008C6
:1000D000080400200448804704480047FEE7FEE784
:1000E000FEE7FEE7FEE7FEE71D070008C100000887
:1000F000064C0125064E05E0E36807CC2B430C3C7B
:1001000098471034B442F7D3FFF7DEFF1009000818
:100110003009000800E0401E0028FCD170470000B4
:1001200010B5802000F01EF8002805D003A000F0D4
:1001300089FB802000F010F810BD0000504137CF3F
:10014000ECD3A6D2BBB4CECFC2BDB5D1D8B4A5B77F
:10015000A2D6D0B6CF0D0A00014948617047000011
:100160000004014001460020044A52690A40002A66
:1001700001D0012000E00020704700000004014091
:10018000F0B50A4600210023002400BF3DE0012510
:100190008D402B4615681D402C469C4234D1157964
:1001A000012D02D01579022D16D185684F00032646
:1001B000BE40B543856055794E00B54086683543ED
:1001C0008560858801268E40B5438580858896792F
:1001D0008E40B6B23543858005684F000326BE4089
:1001E000B543056015794E00B54006683543056096
:1001F000C5684F000326BE40B543C560D5794E00A3
:10020000B540C6683543C560491C1029BFD3F0BD51
:1002100002460020138A0B40002B01D0012000E091
:1002200000207047018570478161704700BFFEE77D
:1002300010B5002000F0C5F900F0E1F9002000F051
:10024000EEF9022000F04CFB012000F0BAF9022088
:1002500000F046FB002000F0B4F910BD10B50020FE
:1002600000F0AFF900F0CBF9012000F0D8F902203E
:1002700000F036FB012000F0A4F9022000F030FB72
:10028000002000F09EF910BD70B505460024012045
:1002900000F0C5F900F0A5F9002000F092F9002661
:1002A00015E0012000F08DF9012000F019FB600637
:1002B000040E00F07FF9002801D0601CC4B20020B9
:1002C00000F07FF9012000F00BFB701CC6B2082E75
:1002D000E7DB002D02D1FFF7C1FF01E0FFF7A8FF28
:1002E000204670BD70B50446002000F06AF9002574
:1002F0001BE080202040C611002E03D1002000F01A
:100300008EF902E0012000F08AF96006040E012057
:1003100000F057F9022000F0E3FA002000F051F954
:10032000022000F0DDFA681CC5B2082DE1DB70BDCB
:1003300010B5012000F073F9012000F0D1FA01207E
:1003400000F03FF9022000F0CBFA002000F067F93E
:10035000022000F0C5FA002000F033F9022000F07E
:10036000BFFA10BD10B5002000F059F9012000F0CF
:10037000B7FA012000F025F9022000F0B1FA0120BF
:1003800000F04DF9022000F0ABFA10BD10B50024CA
:10039000012000F0A5FA012000F041F9012000F051
:1003A0009FFA00F01EF9012000F00BF90AE0601C32
:1003B000C4B2012000F094FA142C03DDFFF7D2FF41
:1003C000012010BD00F0F6F80028F0D100F0F9F897
:1003D000012000F085FA0020F3E71CB50121480454
:1003E00000F0C8F81020009001216846017100213A
:1003F00081710321417169460920C006FFF7C0FEE3
:100400001CBD10B510210920C006FFF70DFF10BD5F
:1004100010B510210920C006FFF704FF10BD000031
:100420001CB50121480400F0B5F8C020009001215E
:1004300068460171002181710321417169460920DB
:10044000C006FFF79DFE012000F04AFA194901207D
:1004500000F032F817480078132801D000201CBDA6
:1004600035201449087008460178112000F056F82C
:1004700007201049087008460178102000F04EF857
:1004800032200C49087008460178282000F046F810
:1004900007200849087008460178162000F03EF849
:1004A00004200449087008460178192000F036F845
:1004B0000120D4E70000002070B505460C4600F08E
:1004C0009EF8FFF735FF4E20FFF70CFFFFF75EFFAA
:1004D000002801D0002070BD00F091F82846FFF7F9
:1004E00001FFFFF753FF002801D00020F3E700F0E1
:1004F00086F8FFF71DFF4F20FFF7F4FEFFF746FFDA
:10050000002801D00020E6E700F079F80020FFF78E
:10051000BBFE2070FFF726FF0120DCE770B5054623
:100520000C4600F06CF8FFF703FF4E20FFF7DAFEF1
:10053000FFF72CFF002801D0002070BD00F05FF80D
:100540002846FFF7CFFEFFF721FF002801D000204B
:10055000F3E700F054F82046FFF7C4FEFFF716FF5C
:10056000002801D00020E8E7FFF7FCFE0120E4E7C7
:1005700070477047002905D0054A52690243044B71
:100580005A6104E0024A52698243014B5A61704742
:1005900000100240002905D0054A92690243044B2D
:1005A0009A6104E0024A92698243014B9A61704762
:1005B0000010024010B580210920C006FFF728FE78
:1005C00010BD10B50446002C05D140210920C006FD
:1005D000FFF728FE04E040210920C006FFF724FEB3
:1005E00010BD1CB5802000900021684601710321D8
:1005F000417169460920C006FFF7C2FD1CBD1CB54C
:100600008020009001216846017100218171032141
:10061000417169460920C006FFF7B2FD1CBD10B547
:100620000446002C05D180210920C006FFF7FAFD01
:1006300004E080210920C006FFF7F6FD10BD7047D9
:100640000CB5002001900090314800680121090498
:1006500008432F49086000BF2D4800680121490464
:10066000084000900198401C01900098002804D197
:100670000521090301988842EED12548006801212F
:1006800049040840002802D00120009001E0002029
:1006900000900098012839D111201E4908601C489B
:1006A00040681B4948600846406848600846406802
:1006B0003F210904884316494860084640681121D3
:1006C00009040843124948600846006801210906E8
:1006D00008430F49086000BF0D4800680121490622
:1006E00008400028F8D00A4840688008800008497F
:1006F000486008464068022108430549486000BF39
:10070000034840680C2108400828F9D10CBD0000BE
:1007100000100240002002407047000010B51B4846
:1007200000680121084319490860084640681849D3
:1007300008401649486008460068164908401349B1
:100740000860084600680121890488430F49086051
:10075000084640683F21090488430C494860084620
:10076000C06A00090001C8620846006BFF215431CD
:100770008843064908630846406B400840004863C8
:1007800000208860FFF75CFF10BD000000100240F1
:100790000CB8FFF8FFFFF6FE10B50B490B4800F050
:1007A00021F800280ED0094800F043F804462146FD
:1007B000064800F043F800BF8021044800F008F824
:1007C0000028F9D010BD00000501050000380140E7
:1007D00002460020D3690B40002B01D0012000E02D
:1007E0000020704770B502460B460024002100250A
:1007F00000201E04350ED9B201268E403146012D4F
:1008000002D11668314006E0022D02D1566831400F
:1008100001E0966831401C0C0126A6403446D6699A
:100820003440002903D0002C01D0012000E000203A
:1008300070BD0146888CC005C00D7047CA05D20D39
:100840000285704710B5024A024900F014F810BD45
:10085000950800080400002002E008C8121F08C123
:10086000002AFAD170477047002001E001C1121F31
:10087000002AFBD17047F8B516460F4604460025FE
:1008800003E03946B047641C6D1C20780028F8D17D
:100890002846F8BD70B504460D46E1B20548FFF79D
:1008A000CDFF00BF40210348FFF792FF0028F9D099
:1008B000204670BD00380140FFF78FFDFFF7B0FD07
:1008C00009E00548FFF726FCFFF7A2FD0348FFF704
:1008D00021FCFFF796FDF4E7404B4C00808D5B0058
:1008E00001B581B00CE07D20C000009004E06846B6
:1008F0000088401E81B20091684600880028F6DC1E
:1009000069468888411E8AB201920028EBD10CBD4D
:100910003009000800000020080000005808000806
:1009200038090008080000200004000068080008DA
:080930000000000000000000BF
:04000005080000C12E
:00000001FF
